:020000040000FA
:10000000D8D10720C5010000CD010000CF010000BC
:10001000D1010000D3010000D50100000000000064
:10002000000000000000000000000000D7010000F8
:10003000D901000000000000DB010000A140000029
:10004000DF010000DF010000DF010000DF01000030
:10005000DF010000DF0100001142000079420000D2
:10006000E1420000DF010000591B0000DF01000039
:10007000DF010000FD3E0000DF010000DF010000A5
:10008000DF010000C13C0000DF010000DF010000D3
:10009000DF010000F5020000DF010000DF010000C9
:1000A000DF01000011140000DF010000DF0100008B
:1000B000DF010000DF010000DF010000DF010000C0
:1000C000DF010000DF010000DF01000000F002F8A6
:1000D00000F068F80AA090E8000C82448344AAF17A
:1000E0000107DA4501D100F05DF8AFF2090EBAE878
:1000F0000F0013F0010F18BFFB1A43F0010318475C
:10010000B84C0000F84C00000A444FF0000C10F806
:10011000013B13F0070408BF10F8014B1D1108BF85
:1001200010F8015B641E05D010F8016B641E01F825
:10013000016BF9D113F0080F1EBF10F8014BAD1C75
:100140000C1B09D16D1E58BF01F801CBFAD505E093
:1001500014F8016B01F8016B6D1EF9D59142D6D3ED
:1001600070470000103A24BF78C878C1FAD8520707
:1001700024BF30C830C144BF04680C607047000021
:100180000023002400250026103A28BF78C1FBD8A0
:10019000520728BF30C148BF0B6070471FB51FBD55
:1001A00010B510BD00F061F81146FFF7F7FF04F03D
:1001B000BBF900F07FF803B4FFF7F2FF03BC00F0D7
:1001C00087F800000948804709480047FEE7FEE736
:1001D000FEE7FEE7FEE7FEE7FEE7FEE7FEE7FEE7F7
:1001E00004480549034A054B70470000454100009B
:1001F000CD000000D8110010D8D10720D8CF07209B
:1002000010B5203AC0F00B80B1E81850203AA0E8B1
:100210001850B1E81850A0E81850BFF4F5AF5FEAE5
:10022000027C24BFB1E81850A0E8185044BF18C998
:1002300018C0BDE810405FEA827C24BF51F8043B3F
:1002400040F8043B08BF7047D20728BF31F8023B93
:1002500048BF11F8012B28BF20F8023B48BF00F827
:10026000012B7047704770477047754600F02CF8B7
:10027000AE4605006946534620F00700854618B093
:1002800020B5FFF7ADFFBDE820404FF000064FF06E
:1002900000074FF000084FF0000B21F00701AC46BB
:1002A000ACE8C009ACE8C009ACE8C009ACE8C009DA
:1002B0008D46704710B50446AFF300802046BDE878
:1002C0001040FFF778BF0000004870477811001019
:1002D00001491820ABBEFEE726000200704700006F
:1002E000000940F63F1148430149B0FBF1F0704767
:1002F000FFFF0F007047000000000000FFFFFFFF3E
:1003000070B50446214842210170FF21417081707F
:10031000C1700171052103F055FE1D4D1D4869781E
:1003200000F8241000EB8400AA784270EB78837008
:100330002D79C57002EB0120174D03EB0022174801
:1003400004EB840100EB0110EA60297840F82120D9
:100350001CB9132915D0491C2970697801290FD1BE
:100360000022114650F82130491CC9B21A44142900
:10037000F8D31420B2FBF0F00849283941F82400E2
:1003800070BD0021297001216970E9E730C907209B
:100390001411001020CF0720B4C4072000CC072080
:1003A0002DE9F05F3A4C41204FF00D0820704420B9
:1003B00060703720A0703120E0703220207134202E
:1003C00060710A2584F806800821E57100204FF04D
:1003D000430B4FF0480E04F5FA7A42F210794FF4CD
:1003E0007A764FF0640CB0FBF5F3621804F801B0B4
:1003F00082F801E030339370B0FBF5F305FB130393
:100400003033D37020231371491D8AB25AF820105B
:100410004B46B1FBF3F73037A754B1FBF9F709FBB3
:100420001713B3FBF6F7A31830375F70B1FBF6F77D
:1004300006FB1717B7FBFCF730379F70B1FBFCF7D3
:100440000CFB1717B7FBF5F73037DF70B1FBF5F78B
:1004500005FB171130311971521D91B2621804F861
:100460000180891C401CC0B2557089B20128BAD9DC
:1004700004F801806018891C45708CB2214604483C
:1004800004F06AFC2146BDE8F05F014804F0E2BBDD
:1004900094C9072030B403F00703029C01F01F0148
:1004A000E40344EA033343EA411102F01F0211431B
:1004B00000F03F02044802700A0A4270817030BCAA
:1004C000032103F07FBD000030C90720F0B4C90745
:1004D000090D02F00302DDE9044541EA422103F07F
:1004E000010241EA022104F00102DDE9066741EA66
:1004F000C21105F0010241EA821106F0010241EA4F
:10050000421107F00302DDF820C041EAC2010CF0FD
:100510000702114300F03F02044802700A0A4270C9
:100520008170F0BC032103F04DBD000030C90720ED
:1005300030B44905DDE9024502F0010241EA025109
:1005400041EA435104F0010241EA0241C5F30902C4
:10055000114300F03F02054802700A0C42700A0A7B
:100560008270C17030BC042103F02CBD30C907205B
:1005700070B5444C0026012560684349072286B0C7
:10058000B0F5617F1CD006DCB0F5FA7F0BD0B0F57A
:100590002F7F71D10BE0B0F57A7F30D0A0F580606D
:1005A000013869D133E00D704A70542002E00D70BB
:1005B0004A70502088700321334803F003FD5BE04C
:1005C0000D704A70C020887003212F4803F0FAFC98
:1005D000022001950295CDE9030600231A4619462B
:1005E00019200096FFF772FF3C20CDE90060002241
:1005F000032311462120FFF79BFF009600E00095A2
:100600000023112219460920FFF744FF34E000209F
:10061000FFF776FE00231122194609200096FFF706
:1006200039FF1A4E002206F15003A3F5257553F841
:100630002200FFF755FE46F82200A0680F2808D2D6
:1006400053F82200FFF74CFE55F82210084445F8F5
:100650002200A068401CA060102806D155F8220096
:100660000F21B0FBF1F045F82200521C92B2072A8C
:10067000DDD940F2E73060606068401C606006B021
:1006800070BD0000B4C4072030C9072088CB072004
:1006900070B504460120002306E0E55CCE5CB5425F
:1006A00000D000205B1CDBB29342F6D370BD00008B
:1006B00000B501F06FF800F079FF03F0C3FB0448C8
:1006C0000068192803D95DF804EB00F055BE00BDA1
:1006D00058C007205C4810B501468269096D940531
:1006E00042F2107321F0004105D5994203D9C46943
:1006F00044F00804C461D20505D5994203D9C16903
:1007000041F00401C161817A0A29C16902D241F430
:10071000803101E021F48031C1614C490A68012A2D
:100720007ED14B4C00220A60B4F8641146F29C332F
:10073000994209D2016A491C01623C2905D9C16963
:1007400041F02001C16100E00262B4F8621148F694
:100750009463994209D9416A491C4162282905D903
:10076000C16941F01001C16100E04262836D49F24C
:100770006A518B4209D2816A491C8162282905D9B4
:10078000C16941F08001C16100E082624DF2DE5139
:100790008B4209D9C16A491CC162282905D9C1699E
:1007A00041F04001C16100E0C262B4F80632A02B02
:1007B00008D9016B491C0163642903D9C16941F45B
:1007C0008071C161962B04D20263C16921F48071EA
:1007D000C161B4F808123C2908D2446B641C44631C
:1007E000642C03D9C46944F40074C461412904D958
:1007F0004263C46924F40074C461642908D2846B20
:10080000641C8463642C03D9C46944F40034C46157
:10081000662904D98263C46924F40034C46100E009
:100820000BE0591A0F2909DDC16B491CC16364290A
:1008300003D9C16941F48061C16110BDC263C1695E
:1008400021F48061F8E700003CC3072044C0072082
:10085000BC0000102DE9F05FFE4B42204FF0410E2E
:10086000187083F801E0542098700D25DD700A247B
:100870001C714220587119464FF05608481D81F8E6
:10088000068020218170C1706D220271DFF8C8B32B
:1008900080F805808171F14FDBF8582042F2107A20
:1008A000B2FBF7F63036C671B2FBF7F607FB162C33
:1008B000BCFBFAF6B2FBFAFC30360AFB1C2C0672C3
:1008C0004FF47A79BCFBF9F6B2FBF9FC303646728C
:1008D00009FB1C2C6426BCFBF6FC0CF1300C80F8E8
:1008E0000AC0B2FBF6FC06FB1C2CBCFBF4FC0CF1B2
:1008F000300C80F80BC0B2FBF4FC04FB1C2230323D
:10090000027345738473502018751A4602F114005F
:1009100082F815809175D1756D22027180F805807D
:100920008171DBF85C20B2FBF7FC0CF1300C80F835
:1009300007C0B2FBF7FC07FB1C2CBCFBFAF7B2FBB1
:10094000FAFC30370AFB1C2C0772BCFBF9F7B2FB30
:10095000F9FC3037477209FB1C27B7FBF6F7303735
:100960008772B2FBF6F706FB1726B6FBF4F63036B5
:10097000C672B2FBF4F604FB1622303202734573E2
:100980008473432083F823001A4602F1230082F87F
:10099000241081704F22C27046220271532242718C
:1009A00081713022C27102723126467232278772FB
:1009B0003726C6723926067345738473482083F838
:1009C00032001E464FF0430C06F1320086F833C069
:1009D00081704F26C6704626067153264671817176
:1009E000C27102723126467287723526C672027350
:1009F00045738473432083F841001A4602F1410095
:100A000082F8421081706D22C27080F804E041715A
:100A1000DBF85010002901DA2D2200E02B228D4B4B
:100A20008E4E42F2107783F8472021F07842B2FBD5
:100A3000F6F1303183F84810B2FBF6F106FB1121D4
:100A4000B1FBF7F130310172B2FBF7F107FB112175
:100A50004FF47A74B1FBF4F130314172B2FBF4F12E
:100A600004FB11216423B1FBF3F130318172B2FB3D
:100A7000F3F103FB11250A21B5FBF1F53035C57201
:100A8000B2FBF1F501FB1522303202734FF00D0875
:100A9000DFF8C09180F80D808173442289F85020DE
:100AA0004A46532582F8515002F150004722827085
:100AB0005222C2704FF0410A80F804A054224271C1
:100AC000DFF894B1452282712025C571BBF80C2056
:100AD000B2FBF4FC04FB1C2CBCFBF3FC0CF1300C53
:100AE00080F808C0B2FBF3FC03FB1C2CBCFBF1FC40
:100AF0000CF1300C80F809C0B2FBF1FC01FB1C22A8
:100B00003032827280F80B8001734FF0430E4A46F8
:100B100089F85DE04FF0480C02F15D0082F85EC09C
:100B2000472282705222C27080F804A0542242717F
:100B300045228271C571BBF80E20B2FBF4FC04FBA8
:100B40001C2CBCFBF3FC0CF1300C80F808C0B2FB91
:100B5000F3FC03FB1C2CBCFBF1FC0CF1300C80F80B
:100B600009C0B2FBF1FC01FB1C223032827280F81A
:100B70000B800173482289F86A204A4602F16A0014
:100B800082F86BE08570C5706D22027180F805A057
:100B90008571DBF85420B2FBF6FC0CF1300C80F8C8
:100BA00007C0B2FBF6FC06FB1C2CBCFBF7FC0CF1EF
:100BB000300C80F808C0B2FBF7FC07FB1C2CBCFB18
:100BC000F4FC0CF1300C80F809C0B2FBF4FC04FB1F
:100BD0001C2CBCFBF3FC0CF1300C80F80AC0B2FBFF
:100BE000F3FC03FB1C2CBCFBF1FC0CF1300C80F87B
:100BF0000BC0B2FBF1FC01FB1C223032027380F807
:100C00000D808173462289F879204A4602F17900E5
:100C100082F87AE085706D22C27080F804A06822A4
:100C200042718571DBF84050B5FBF6FC0CF1300CDD
:100C300080F807C0B5FBF6FC06FB1C56B6FBF7F6C2
:100C400030360672B5FBF7F607FB1656B6FBF4F620
:100C5000303605E03CC707203CC30720A0860100D2
:100C60004672B5FBF4F604FB1654B4FBF3F43034CF
:100C70008472B5FBF3F403FB1453B3FBF1F330338D
:100C8000C372B5FBF1F301FB1351303101734B46D5
:100C90000D2183F886100A2181739A465346462017
:100CA00003F8880F4946432481F8894001F1880000
:100CB000722181706D21C170412101714271202129
:100CC0005A468171FE4C516CB1FBF4F43034C4715E
:100CD000FB4CB1FBF4F504FB15143D46B4FBF5F4F5
:100CE000303404722C46B1FBF4F504FB15144FF4B8
:100CF0007A75B4FBF5F4303444722C46B1FBF4F54C
:100D000004FB15156424B5FBF4F4303484726424B8
:100D1000B1FBF4F504FB15140A25B4FBF5F43034EB
:100D2000C4722C46B1FBF4F504FB1511303101738C
:100D30000D2141730A2181735220D87349464324FF
:100D400081F8984001F19700202181706D21C170D8
:100D5000412101716821417120218171D84C916C30
:100D6000B1FBF4F43034C471D54CB1FBF4F504FBA1
:100D700015143D46B4FBF5F4303404722C46B1FB37
:100D8000F4F504FB15144FF47A75B4FBF5F4303424
:100D900044722C46B1FBF4F504FB15146425B4FB36
:100DA000F5F4303484722C46B1FBF4F504FB1514D1
:100DB0000A25B4FBF5F43034C4722C46B1FBF4F5CB
:100DC00004FB1511303101730D2141730A21817328
:100DD000522098774946432401F1A60081F8A740A4
:100DE000202181706D21C170412101716D214171FE
:100DF000732181712021C171B24C516FB1FBF4F4A8
:100E000030340472AF4CB1FBF4F504FB1514AE4D55
:100E1000B4FBF5F4303444722C46B1FBF4F504FB1A
:100E20001514AA4DB4FBF5F4303484722C46B1FB92
:100E3000F4F504FB1514A24DB4FBF5F43034C47280
:100E40002C46B1FBF4F504FB15143D46B4FBF5F458
:100E5000303404732C46B1FBF4F504FB15144FF445
:100E60007A75B4FBF5F4303444732C46B1FBF4F5D9
:100E700004FB15146425B4FBF5F4303484732C465C
:100E8000B1FBF4F504FB15150A24B5FBF4F430347A
:100E9000C4730A24B1FBF4F504FB1511303101745D
:100EA0000D2141748474522083F831004946432453
:100EB00001F1B90081F8BA40202181702521C1706B
:100EC0002021017141718171917A6424B1FBF4F4A4
:100ED0003034C4716424B1FBF4F504FB15140A2505
:100EE000B4FBF5F4303404722C46B1FBF4F504FB8A
:100EF0001511303141720D2181720A21C1724C24C9
:100F0000494683F83D40442581F8C65001F1C500AB
:100F1000432181702021C1706D21017141214171F6
:100F2000682181712021C171664D916FB1FBF5F58A
:100F300030350572634DB1FBF5F605FB1615624EB3
:100F4000B5FBF6F5303545723546B1FBF5F605FBD8
:100F500016155E4EB5FBF6F5303585723546B1FB9C
:100F6000F5F605FB1615564EB5FBF6F53035C57290
:100F70003546B1FBF5F605FB16153E46B5FBF6F515
:100F8000303505733546B1FBF5F605FB16154FF404
:100F90007A76B5FBF6F5303545733546B1FBF5F697
:100FA00005FB16156426B5FBF6F530358573354619
:100FB000B1FBF5F605FB16150A26B5FBF6F530353F
:100FC000C5733546B1FBF5F605FB161130310174DA
:100FD0000D2141740A21817483F85040494643240D
:100FE00001F1D80081F8D94084702021C1706D21B1
:100FF000017141214171682181712021C17102F18A
:101000008001304C0968B1FBF4F4303404722D4C8B
:10101000B1FBF4F504FB15142B4DB4FBF5F430349F
:1010200044722C46B1FBF4F504FB1514274DB4FBB8
:10103000F5F4303484722C46B1FBF4F504FB15143E
:101040001F4DB4FBF5F43034C4722C46B1FBF4F5FB
:1010500004FB15143D46B4FBF5F4303404732C4600
:10106000B1FBF4F504FB15144FF47A75B4FBF5F4F9
:10107000303444732C46B1FBF4F504FB151464259D
:10108000B4FBF5F4303484732C46B1FBF4F504FB67
:1010900015150A24B5FBF4F43034C4730A24B1FBEB
:1010A000F4F504FB1511303101740D214174847481
:1010B00042208AF8EB004846502300F1EB0107E09C
:1010C000A086010000E1F5058096980040420F00DF
:1010D00080F8EC30202088705320C87054200871AC
:1010E0005520487120208871D0690923B3EB107F07
:1010F00001D2372300E030239D4C03EB1073C0F383
:10110000036984F8F230B9F1090F02D909F1370304
:1011100001E009F13003964CC0F30357092F84F81E
:10112000F33002D907F1370301E007F13003904CA7
:10113000C0F30346092E84F8F43002D906F13703D0
:1011400001E006F130038A4CC0F30335092D84F821
:10115000F53002D905F1370301E005F13003844C85
:1011600084F8F630C0F30324092C02D904F13703C4
:1011700001E004F13003DFF8F8C18CF8F730C0F378
:101180000313092B02D903F1370C01E003F1300CF2
:10119000DFF8DC8100F00F02092A88F8F8C002D9D4
:1011A00002F1370C01E002F1300CDFF8C4814FF09E
:1011B0000D0B4FF00A0E88F8F9C088F8FAB081F8E4
:1011C00010E04FF0570C8AF8FCC0DFF8A4C14FF0D4
:1011D0004B080CF1FC018CF8FD804FF020088CF8D6
:1011E000FE804FF0530C81F803C04FF0540C81F88F
:1011F00004C04FF0550C81F805C0DFF878C181F8C4
:1012000006804FF00908DCF818C0B8EB107F07D251
:10121000372000EB1C70DFF858C18CF8030105E0A3
:10122000302000EB1C7C524880F803C1DFF844C139
:10123000DFF83C816046B9F1090F8069C0F30360B3
:1012400001D9373000E0303088F804014948092FCF
:10125000474F8069C0F3035001D9373000E0303088
:1012600087F805014348092E414E8069C0F30340C9
:1012700001D9373000E0303086F806013D48092DAD
:101280003B4D008BC0F3033001D9373000E03030E4
:1012900085F807013748092C354C008BC0F3032033
:1012A00001D9373000E0303084F808013148092B8B
:1012B0002F4B007EC0F3031001D9373000E03030EF
:1012C00083F809012B48092A294A007E00F00F0003
:1012D00001D9373000E0303082F80A0124484D252A
:1012E000544680F80BB181F810E0542020498AF868
:1012F0000D0101F20D1081F80E5150218170702105
:10130000C1706121017172214171202181719CF8AC
:1013100004006421B0FBF1F5303584F81451B0FBC2
:10132000F1F501FB15017246B1FBF2F610493036BA
:1013300001F58A7581F81561B0FBF2F102FB11002D
:101340003030A8705B4684F81731094840F21B140E
:10135000214680F818218AF8193180F81A2103F003
:10136000FBFC2146BDE8F05F014803F073BC0000C0
:101370003CC707203CC307200021084A08468B23AE
:10138000434302EB8303401CB3F81432C0B201EBB9
:1013900043010228F3D3024881657047BC00001066
:1013A0003CC30720F0B5194E00208B21414306EBCA
:1013B0008101401CCA8980B202F47042CA810228AD
:1013C000F3D30022012700208B21514306EB81013A
:1013D000B1F8405007FA00F39CB21D420CD001EB6B
:1013E0004003B3F842C0B1F8643103F5FA739C4589
:1013F00002D9CB892343CB81401C80B20C28E9D38E
:10140000521C92B2022ADED3F0BD0000BC000010D4
:1014100078B51248C0680090114EC0074FF0010423
:1014200004D01049002000F021F8346000980C4DE1
:101430008007A5F1080500D52C600B48C068009016
:10144000C00705D007490120103100F00FF8746083
:101450000098800700D56C6078BD00000040044013
:101460003C0000101CC707200080044068B10B48F6
:10147000026AD30F4B73C2F380738B73C2F30342C0
:101480000A73426A0A6013B105E00548F0E7826A10
:101490004A60C26A8A60042141607047008004404B
:1014A000004004402DE9F843071E2948294DDFF884
:1014B000A8804FF0000613D0444650F8C41F11D145
:1014C00041F400510160002301221946184600969C
:1014D00002F0FCFA0023012211461846009610E0A3
:1014E0002C46EAE741F480410160002301220721F4
:1014F0000220009602F0EAFA0023012208210220CD
:10150000009602F0E3FA01204FF0E0224106C2F813
:101510000011124A102182F80014114A02211160B0
:1015200020602661A6600F4807B145460E4A0A2191
:10153000B2FBF1F1B1FBF0F0401EC0F309010B4822
:10154000806A0843686103202061BDE8F8830000D9
:1015500000C00F40004004400080044019E000E05B
:1015600000C0034020A1070040787D01744D0000B9
:1015700018B103480021016070470248FAE70000F3
:10158000008004400040044040B10549CA69520748
:10159000FCD5044A012142F8201070470249F5E7C2
:1015A000008004403400001000400440F0B5384B87
:1015B000384C18469A69006DD10520F000404FF074
:1015C00000051BD5D96F0144D967A14209D9B1FBE8
:1015D000F4F69F6F3E449E67B1FBF4F604FB1611D0
:1015E000D967596F884202D2091A596706E09E6C82
:1015F0001EB1761E21449E64F6E75D6791052ED5E7
:1016000091032CD4224A8032516801445160A14296
:1016100009D9B1FBF4F617683E441660B1FBF4F645
:1016200004FB16115160596F08445867A0420CD949
:10163000996C184A491C524210449964586745F203
:101640000820814201D35D679864134848F6AC21B5
:10165000B0F86201884202D9986C58641864D86F57
:101660009630D867586F962801D9963806E0996C5D
:1016700031B1491E9964074996390844586700E01A
:101680005D67986F4FF47A51B0FBF1F09882F0BD2E
:101690003CC3072080EE3600BC00001010B50B4C98
:1016A000012809D000221121012000F011FAA069BF
:1016B00020F00200A06110BD01221121104600F0AF
:1016C00007FAA06940F00200F4E700003CC30720DD
:1016D00018B50C46010A217060708DF800108DF865
:1016E00001000221684603F041FA010AA170E0708E
:1016F00018BD00002DE9F043DFF894800C26354634
:10170000B8F84240002123464FF0010900208B2207
:101710004A4308EB820CBCF8407009FA00F2174209
:1017200017D00CEB4002B2F84220A24207D9C1F117
:10173000010606EB460600EB86061446B6B29A4250
:1017400007D21346C1F1010202EB420200EB820212
:1017500095B2401CC0B20C28DFD3491CC9B2022983
:10176000D4D3E01A82B200218B20484308EB8000DA
:10177000491CA0F86241A0F86431A0F86621A0F8E5
:101780006861C9B2A0F86A510229EDD3BDE8F083BF
:10179000BC000010F0B51B481B4D00260468AB6967
:1017A000EA6C23F400714FF49677A4F2FF40B4F58D
:1017B000A06F12D26FF01304604364244443B4FB5F
:1017C000F2F2AA81B84218D940F00040286523F40B
:1017D000007040F48070A861F0BD00EB80008000D4
:1017E00064244443B4FBF2F2EA81B84205D9286587
:1017F00023F4807040F40070EDE721F480702E65D2
:10180000E9E7000088CB07203CC3072010B50B4C4C
:10181000012809D000221021012000F059F9A06907
:1018200020F00100A06110BD01221021104600F03F
:101830004FF9A06940F00100F4E700003CC3072025
:10184000274810B5A0210170012141708170A121AC
:10185000C170C1790279837901EB02614279120486
:1018600002EB03220A44A0F58F710A66C27A037A5A
:10187000847A02EB0362437A1B0403EB04231A44C9
:101880004A66027B4A72027C437BC47B02EB0362A2
:10189000837B1B0403EB04231A448A66027D437C8A
:1018A000C47C02EB0362837C1B0403EB04231A4415
:1018B000CA66027E437DC47D02EB0362837D1B0406
:1018C00003EB04231A440A67827E437E02EB032261
:1018D0000A82027FC07E02EB0020488210BD000019
:1018E0005AC407202DE9F0433F48A021A0F58F7985
:1018F00001700021417001218170A121C170C17965
:101900000279837901EB02614279120402EB03222E
:101910000A44C9F86020C37A047A857A03EB046329
:10192000447A4946240404EB052403EB0408C9F86F
:10193000648090F80CC089F809C0047C437BC57BA7
:1019400004EB0363847B240404EB05241F198F66D6
:10195000037D447CC57C03EB0463847C240404EB9A
:1019600005241E19CE66037E447DC57D03EB04630A
:10197000847D240404EB05241D190D67837E447EB9
:1019800003EB04239CB20C82037FC07E03EB002098
:1019900083B24B82D9F8581001208A4200D000202F
:1019A000D9F848204946904500D000208A7A9445CD
:1019B00000D000200A6C974200D000208A6F964227
:1019C00000D00020084A9E3A1268954200D00020BC
:1019D000B9F814108C4200D00020A3F5B441A53909
:1019E00000D00020BDE8F0835AC407201E48A02183
:1019F000A0F1EC020170012141708170916D0B0E1C
:101A0000C3700B0C03710B0A43718171916C0B0E47
:101A1000C3710B0C03720B0A43728172917AC1720B
:101A2000116C0B0E03730B0C43730B0A8373C1739E
:101A3000916F0B0E03740B0C43740B0A8374C17407
:101A4000A0F16C0109680B0E03750B0C43750B0AB2
:101A50008375C175918A0A0A027641765A21817688
:101A6000A521C1767047000028C4072030B5104872
:101A7000104AB0F80812107802F11403A2F1C4045D
:101A8000884201D91878E070D07C884201D2D87C95
:101A9000E0700020155C8D4205D215186D788D42DE
:101AA00001D91D5CE570401CC0B21328F2D330BDD3
:101AB000BC00001000C40720044A02EB401040693B
:101AC00001228A40104000D00120704700C0092048
:101AD00001238B40034901EB40100AB18361704739
:101AE000C361704700C009200549002851F8C40FA0
:101AF00002D040F4004001E020F40040086070474C
:101B000000C00F4010B5064C012304EB40108B4081
:101B100001680AB1194300E09943016010BD00005B
:101B200000C0092010B50B4C012809D000220E215D
:101B30000120FFF7CDFFA06920F00400A06110BDD7
:101B400001220E211046FFF7C3FFA06940F00400F8
:101B5000F4E700003CC307202DE9F04F344841680A
:101B600001F0F80111F0070F5AD1324C4FEAE108A9
:101B70000425E77894F801C0791CCBB2A168E3464C
:101B800014264A1CACF1010C94F802904FF0200E80
:101B90000CF0FF0AB8F10C0F42D2DFE808F0410662
:101BA0000C12191B193240193445097881600560FF
:101BB000C0F818E003E009788160A2600560E37076
:101BC0002EE009788160A260056084F801A0F6E744
:101BD000066025E094F804C0BCF1000F05D05FEA70
:101BE0000B060BD084F801A003E04F4501D9066035
:101BF0000CE009788160A260E37010E0714601603A
:101C00000EE02421FBE74F4503D9856100212170B7
:101C100006E083680B70A260E178491CE170056002
:101C200008218161BDE8F08F83680B70A260CFE767
:101C300000C0014030C3072010B501220F2110461B
:101C4000FFF760FF012210211046FFF75BFF012222
:101C500011211046FFF756FF01220E211046FFF713
:101C600051FF01220A211046FFF74CFF00220521F7
:101C70001046FFF747FF002205210220FFF742FF31
:101C8000002203210220FFF73DFF00220421022051
:101C9000FFF738FF022100220846FFF733FF012239
:101CA00018211046FFF72EFF012219211046FFF7D9
:101CB00029FF01221A211046FFF724FF01221B21D0
:101CC0001046FFF71FFF01221C211046FFF71AFFE5
:101CD00001221D211046FFF715FF01220F2110469A
:101CE000FFF7F6FE002210210120FFF7F1FE00228F
:101CF00011210120FFF7ECFE00220E210120FFF749
:101D0000E7FE012218211046FFF7E2FE0122192109
:101D10001046FFF7DDFE01221A211046FFF7D8FE1C
:101D200001221B211046FFF7D3FE01221C21104681
:101D3000FFF7CEFE0122BDE810401D211046FFF73F
:101D4000C7BE000010B50D4C6078002814D10521E5
:101D5000FFF7B2FE18B9A07840F00100A070A0789B
:101D6000002809D005210020FFF7A6FE012803D195
:101D7000A07860700020A07010BD0000B4000010BA
:101D80002DE9F0474B4800264B4C00780A2801D239
:101D900026701BE0A0F10A01142901D2012014E0F1
:101DA000A0F11E01142901D202200EE0A0F132019F
:101DB000142901D2032008E0A0F14601142901D220
:101DC000042002E05A2801D9052020703B4D4FF431
:101DD00016774FF4967828684FF4E179C10530D52D
:101DE000810558D4400556D46068B8421FD009DC3C
:101DF000012816D0962816D0404516D048454AD11D
:101E0000022019E0A0F50070EE3812D0FA2812D0A6
:101E1000A0F58060E2380CD0A0F53060B8383AD137
:101E200022E0052008E0042006E0032004E0012071
:101E300002E0002000E0207800F042F82888C00589
:101E400029D42868810526D5400524D46068B84285
:101E50001CD00BDC01281CD0962813D0404513D091
:101E6000484518D1042014E0666014E0A0F5007025
:101E7000EE3805D0FA280BD0A0F58060E238CBD13F
:101E8000002006E0022004E0032002E0052000E03C
:101E9000207800F015F8286810F4407F05D140053F
:101EA00003D4207800F00CF866606068401C606025
:101EB000BDE8F08746C30720B400001054C30720D4
:101EC00010B506285BD2DFE800F003051B222E3F89
:101ED000012200E0002219210120FFF7F9FD012273
:101EE0001A210120FFF7F4FD01221B210120FFF739
:101EF000EFFD01221C210120FFF7EAFD012238E05D
:101F0000002219210120FFF7E3FD0022E8E700226B
:101F100019210120FFF7DCFD00221A210120FFF723
:101F2000D7FD0022E1E7002219210120FFF7D0FDB3
:101F300000221A210120FFF7CBFD00221B210120E6
:101F4000FFF7C6FD0022D5E7002219210120FFF787
:101F5000BFFD00221A210120FFF7BAFD00221B213C
:101F60000120FFF7B5FD00221C210120FFF7B0FD85
:101F700000221D21BDE810400120FFF7A9BD10BDC2
:101F800030B5194A1168814201D2142030BD916BDD
:101F9000814201D9D22030BD002152F82150854222
:101FA00005D902EB81056D68854200D20C46491CBB
:101FB00089B20F29F1D30D4A04EB8404002102EB0E
:101FC000C40252F82150854205D902EB81056D68A3
:101FD000854200D20B46491C89B20A29F1D303EB92
:101FE00044003C3080B230BDF4C20720C4C007209A
:101FF00000B546490120FFF76BFB44490220091D4B
:10200000FFF766FB414904200831FFF761FB3F49B8
:1020100006200C31FFF75CFB3C4908201031FFF72C
:1020200057FB3A490A201431FFF752FB37490C207D
:102030001831FFF74DFB35490E201C31FFF748FBE7
:10204000324910202031FFF743FB30491220243160
:10205000FFF73EFB2D494FF458702831FFF738FB4E
:102060002A494FF45A702C31FFF732FB27494FF4BD
:102070004A703031FFF72CFB244940F247303431AD
:10208000FFF726FB214940F201203831FFF720FB02
:102090001E4940F201303C31FFF71AFB1B494FF457
:1020A000A0604031FFF714FB184940F2475044311B
:1020B000FFF70EFB15494FF4A1604831FFF708FB0D
:1020C000124940F24F504C31FFF702FB0F4940F2EA
:1020D0006F505031FFF7FCFA0C4940F26750543111
:1020E000FFF7F6FA094940F211705831FFF7F0FA9C
:1020F000064940F212705C31FFF7EAFA034940F2F8
:10210000137060315DF804EBFFF7E2BA60C007209E
:102110002DE9F05FFE48DFF8FC83FD4E00784FF0BC
:10212000010A00244FF00A0BA8F6284520B18028A8
:102130007DD001287CD00DE2B08846F6AA2933284C
:1021400077D02CDC172875D014DC0E2826D008DCBC
:102150000128FBD0022857D004286CD00528EAD1EA
:10216000A7E00F2868D0112867D0132866D015285B
:10217000E1D1C5E025287CD008DC18287AD01928C0
:1021800079D02228E2D02328D5D157E1272873D04F
:10219000282872D0292871D03228CCD1F7E34FF00B
:1021A000150B87286BD014DC7E28F7D008DC352887
:1021B00066D0372865D0742874D07528BBD122E248
:1021C0007F2879D0812870D083286FD08528B2D11C
:1021D00038E2B0F5DA7F6AD00ADC882868D0A0F54A
:1021E00080701D38DAD0012879D09628A3D1CEE3AB
:1021F000B0F5DB7F56D0A0F58070B7383AD0012813
:10220000C7D0022897D162E300274FF0BE0B4FF0F2
:10221000910AA1468B2207FB02F0FE2105F820104F
:1022200005EB80044021617084F802B007E07AE396
:102230007FE37BE174E035E03EE040E050E084F88D
:1022400003A0A4F80E9084F804901020607120463A
:10225000062102F08BFC010AF0807F1CA171FFB205
:10226000E071022FD6D30021434600208B224A433F
:1022700008E0E6E0DCE0DEE0F3E052E153E1EFE12C
:1022800057E168E105EB820400EBC106245C1E44C3
:10229000401CC0B234710828EAD3491CC9B20229D3
:1022A000E3D3AFE29A487C30EBE3AFE1BCE1DCE2A0
:1022B00078E297485830E4E395482C3048E1002410
:1022C0008B20604305EB80002146103000F0E8FED3
:1022D000641CE4B2022CF3D38D48303038E192E232
:1022E00000248B20604305EB80002146163000F06F
:1022F000D7FE641CE4B2022CF3D38548343027E1C6
:1023000000248B20604305EB800021461C3000F048
:10231000C7FE641CE4B2022CF3D37D48383017E1C9
:1023200000278B20784305EB80003946223000F0EF
:10233000B7FE7F1CFFB2022FF3D300218B2048434E
:1023400005EB8000491C10F8102FC9B24378022910
:1023500002EB0322A0F84A208278C37802EB032222
:10236000A0F84C200279437902EB0322A0F84E201A
:102370008279C37902EB0322A0F85020027A437AD3
:1023800002EB0322A0F85220827AC37A02EB0322E6
:10239000A0F85420027B437B02EB0322A0F85620D6
:1023A000827BC37B02EB0322A0F85820027C437C93
:1023B00002EB0322A0F85A20827CC37C02EB0322AA
:1023C000A0F85C20027D437D02EB0322A0F85E2092
:1023D000827DC37D02EB0322A0F86020AED30021F2
:1023E0004F4680234FF08B0C002001FB0CF205EBD5
:1023F000820C0CEB400CBCF85AC0BC4500D03370CA
:10240000401CC0B20C28F2D3491CC9B20229E9D33E
:10241000307880280AD17078052805D2401C707069
:102420003470A6F804A095E0337093E0747091E0E6
:102430003748803025E33648683022E334483C3062
:1024400086E000248B20604305EB80002146283085
:1024500000F026FE641CE4B2022CF3D32C4840307A
:1024600076E000278B2107FB01F005EB8000394661
:102470002E3000F015FE7F1CFFB2022FF2D3002198
:102480008B20484305EB8000491C10F8282FC9B267
:102490004378022902EB032242868278C37802EB5A
:1024A000032282860279437902EB0322C286827973
:1024B000C37902EB03220287027A437A02EB0322FA
:1024C0004287827AC37A02EB03228287D8D3002123
:1024D000CC46802700208B2201FB02F305EB830210
:1024E00002EB4002B2F85A20624500D03770401C1F
:1024F000C0B20628F2D3491CC9B20229EAD3307807
:10250000802893D17078052809D2401C707003E0B0
:102510003CC00720E40C001034700C203DE1377003
:1025200018E0FE48ADE2FD481438AAE2FB48403806
:102530000EE000248B20604305EB80002146343000
:1025400000F0AEFD641CE4B2022CF3D3F3483C3837
:1025500000F0ECFDFEE200278B20784305EB8000C5
:1025600039463A3000F09CFD7F1CFFB2022FF3D3B6
:1025700000218B20484305EB8000491C10F8342FC4
:10258000C9B24378022902EB0322C2848278C3785D
:1025900002EB032202850279437902EB0322428592
:1025A0008279C37902EB03228285E2D300204B4675
:1025B00080228B21414305EB8101B1F85A709F4283
:1025C00000D03270B1F85C709F4200D03270B1F828
:1025D0005E709F4200D03270B1F86010994200D016
:1025E0003270401CC0B20228E3D33078802888D1F2
:1025F0007078052805D2401C70703470A6F804B0BD
:10260000A8E23270A6E2C5483838D6E300248B2011
:10261000604305EB80002146103000F041FD641C52
:10262000E4B2022CF3D357E600248B20604305EB81
:1026300080002146163000F033FD641CE4B2022C09
:10264000F3D35AE600248B20604305EB800021463B
:102650001C3000F025FD641CE4B2022CF3D35CE6D0
:1026600000278B20784305EB80003946223000F0AC
:1026700017FD7F1CFFB2022FF3D300218B204843AC
:1026800005EB8000491C10F8102FC9B243780229CD
:1026900002EB032242868278C37802EB0322828611
:1026A0000279437902EB0322C2868279C37902EB75
:1026B00003220287027A437A02EB03224287827A5C
:1026C000C37A02EB03228287027B437B02EB032265
:1026D000C287827BC37B02EB0322A0F84020027CEE
:1026E000437C02EB0322A0F84220827CC37C02EBF5
:1026F0000322A0F84420027D437D02EB0322A0F8D0
:102700004620827DC37D02EB0322A0F84820B5D38A
:10271000002246F2A817A94600218B204AF2F87B36
:10272000554602FB00FC09EB8C0000EB4103B3F8BB
:102730004230BB4201D85B4507D2B0F8403005FAC1
:1027400001F843EA0803A0F84030491CC9B20C293B
:10275000E9D3002142F2107300EB410CBCF842C0F7
:102760009C4507D8B0F840C005FA01F82CEA080CDF
:10277000A0F840C0491CC9B20C29EDD3521CD2B2FA
:10278000022AC9D3307880287FF450AE70780528AB
:1027900005D2401C707034703E20B080DAE1802099
:1027A0003070D7E1D946002740F2555A4FF0550B0B
:1027B0008B21794305EB81042046A4F80EA084F810
:1027C00004B084F80590062102F0D0F9010AF080E7
:1027D0007F1CA171FFB2E071022FE9D300214346B3
:1027E00000208B224A4305EB820400EBC106245CE7
:1027F0001E44401CC0B234710828F4D3491CC9B22D
:102800000229EDD31FE2002740F6AA294FF0AA0AB9
:102810004FF01A0B8B21794305EB81042046A4F875
:102820000E9084F804A084F805B0062102F09EF909
:10283000010AF0807F1CA171FFB2E071022FE9D381
:102840000021434600208B224A4305EB820400EB23
:10285000C106245C1E44401CC0B234710828F4D365
:10286000491CC9B20229EDD3EDE100278B2107FBFA
:1028700001F005EB80040621E08900F47040E0815E
:102880002071C0F3032040F010006071204602F078
:102890006DF9010AF0807F1CA171FFB2E071022F77
:1028A000E4D30021424600208B2301FB03F405EB17
:1028B000840300EBC1061B5C1644401CC0B233719C
:1028C0000828F4D3491CC9B20229ECD3BBE186F82D
:1028D00000A0002100208B2201FB02F305EB830204
:1028E00002EB4002401CC0B2A2F842400C28F5D3D3
:1028F000491CC9B20229EDD3002100208B224A4392
:1029000005EB820303EB4003401CC0B2A3F86E4109
:102910000528F5D3491CC9B2022901E0C0C007202F
:10292000EBD3B480B3E3002216210120FFF7D0F8E7
:10293000ADE3012216211046FFF7CAF8B088192826
:102940007ED01ADC0F2835D00DDC03283FF437ACDD
:1029500004DC01281BD00228E4D1A3E40C28F9D020
:102960000D28DFD1A8E411380828DBD2DFE800F019
:1029700030F23EF24CF3F2045AE54FF6FF79292883
:102980007ED00DDCA0F122000728CBD200E0F3E0DE
:10299000DFE800F0F205E0F1E0F00400C1E54DE50C
:1029A0003228D7D033283FF4C1AD35286AD0372834
:1029B000B8D117E200248B20604305EB800021464C
:1029C000103000F06DFB641CE4B2022CF3D383E4FE
:1029D00000248B20604305EB80002146163000F078
:1029E0005FFB641CE4B2022CF3D386E400248B204A
:1029F000604305EB800021461C3000F051FB641C55
:102A0000E4B2022CF3D388E400248B20604305EB6E
:102A100080002146223000F043FB641CE4B2022C0B
:102A2000F3D300218B2201FB02F005EB800010F8AC
:102A3000102F437802EB0322A0F84A20827800E0AE
:102A40003FE1C37802EB0322A0F84C2002794379DE
:102A500002EB0322A0F84E208279C37902EB032215
:102A6000A0F85020027A437A02EB0322A0F8522009
:102A7000827AC37A02EB0322A0F85420027B02E0A0
:102A800099E19AE19FE1437B491C02EB0322A0F804
:102A90005620827BC37BC9B202EB0322A0F85820E8
:102AA000027C437C022902EB0322A0F85A20827C9C
:102AB000C37C02EB0322A0F85C20027D437D02EB85
:102AC0000322A0F85E20827DC37D02EB0322A0F8E2
:102AD0006020A7D30021D446A94600208B22376A64
:102AE00044F24F6801FB02F509EB85020CFA00F491
:102AF000B2F84030234210D002EB4003B3F85A3012
:102B0000A3F5C244A93C444507D200EB800402EB84
:102B1000840202EB4702A2F87230401CC0B20C28BB
:102B2000E2D3491CC9B20229D7D3B9F8640148F2EB
:102B3000E8014A46884205D8B2F8621148F2D0430B
:102B400099421AD9B2F86211081AB0F5FA7F03DD7A
:102B5000FEF728FC9BE21EE000208B21414302EBA4
:102B60008101401CCB89C0B203F47043CB810228A1
:102B7000F3D38CE2B7E0A7E022E100208B214143B0
:102B800002EB8101401CCB89C0B203F47043CB81BE
:102B90000228F3D37BE2D6E905404FF4005A4FF404
:102BA000805C4FF480474FF40049A04259D900247B
:102BB000B3468B2204FB02F0FE2105F8201005EB42
:102BC000800640217170BE20B0709120F070F089B5
:102BD00000F47041B1F5805F0CD0514537D0B94257
:102BE0003AD049450ED100F088013171082101EA3F
:102BF000102004E000F011013171C0F3002040F01A
:102C0000100070713046062101F0B0FF010AABF8E8
:102C10000600641CB171E4B2F071022CC9D300212A
:102C2000434600208B224A4305EB820400EBC10699
:102C3000245C1E44401CC0B234710828F4D3491CE3
:102C4000C9B20229EDD3FE4800F02EFF1FE200F0CA
:102C5000220131710221CAE700F0440131710421DF
:102C6000C5E70023D0468B20584305EB8001C88977
:102C700000F47042424512D008DC5AB1624518D1C6
:102C8000C0F30B0040F40050C88112E0BA420BD0F0
:102C90004A450ED1C0F30B0040F48050F4E7C0F376
:102CA0000B0040F48040EFE7C0F30B0040F400401D
:102CB000EAE75B1CDBB2022BD5D304F57A74B4616E
:102CC000E5E1DF48403078E000248B20604305EBED
:102CD00080002146283000F0E3F9641CE4B2022CA5
:102CE000F3D3FFF7BBBB00272C468B20784304EBC4
:102CF000800039462E3000F0D3F97F1CFFB2022F3E
:102D0000F3D300218B20484304EB8000491C10F8CA
:102D1000282FC9B24378022902EB0322A0F85021E0
:102D20008278C37802EB0322A0F85221027943791A
:102D300002EB0322A0F854218279C37902EB03222B
:102D4000A0F85621027A437A02EB0322A0F8582118
:102D5000827AC37A02EB0322A0F8EA21D2D30021BF
:102D600047F64F0800208B22D6F820C001FB02F363
:102D700004EB830202EB4005B5F87851A5F1C907D1
:102D8000474507D200EB800702EB870707EB4C07AC
:102D9000A7F88251401CC0B20528E9D304EB830098
:102DA000B0F81202484501D0A2F81002491CC9B27D
:102DB0000229D7D36BE1A248483000F0DBF966E185
:102DC00000F05AFE63E100248B20604305EB800095
:102DD0002146343000F064F9641CE4B2022CF3D3D1
:102DE000FFF7B4BB00278B20784305EB8000394602
:102DF0003A3000F055F97F1CFFB2022FF3D30021C7
:102E00008B20484305EB8000491C10F8342FC9B2D1
:102E10004378022902EB0322A0F8E2218278C378EA
:102E200002EB0322A0F8E6210279437902EB0322A8
:102E3000A0F8EA218279C37902EB0322A0F8EE21FF
:102E4000C27A80F8F121DBD300214B468B20484326
:102E500005EB8000B0F816229A4201D0A0F81422A7
:102E6000B0F81A229A4201D0A0F81822B0F81E2217
:102E70009A4201D0A0F81C22B0F822229A4201D036
:102E8000A0F8202290F82522FF2A01D080F82422E1
:102E9000491CC9B20229D9D3F069401CF061316ADA
:102EA0000A2901D2491C31620A2900D1346216284C
:102EB0007ED9644E00220020002146F82140491CA2
:102EC000C9B20C29F9D300218B2700EB800802FB43
:102ED00007F305EB830707EB880707EB410756F875
:102EE00020C0B7F87270491C6744C9B246F8207018
:102EF0000A29EED3D946B7FBF9F105EB830303EBBF
:102F00004003401CC0B2A3F842100C28D4D3521C7A
:102F1000D2B2022ACFD3FEF7EDFB0022002000211F
:102F200046F82140491CC9B20529F9D300218B2755
:102F300000EB800802FB07F305EB830707EB88072C
:102F400007EB410756F820C0B7F88271491C674467
:102F5000C9B246F820700A29EED3B7FBF9F105EBA8
:102F6000830303EB4003401CC0B2A3F86E11052895
:102F7000D5D3521CD2B2022AD0D3002100208B22FA
:102F800001FB02FC05EB8C0202EB400342F21077DE
:102F9000B3F86E3103FB07F6B2F8107202EB800251
:102FA000FB1A96FBF3F3401CC0B2C2F8E83100E014
:102FB0006BE00528E6D3491CC9B20229DED30026FE
:102FC000A94600258B2106FB01F809EB880707EBD2
:102FD0008500D0F8E801FEF7D3FFD22803D207EB33
:102FE0004501A1F8FC016D1CEDB2052DEDD3761C59
:102FF000F6B2022EE5D3B9F8FC510527CC462B4694
:103000003E46002100208B2201FB02F80CEB8802D7
:1030100002EB4002B2F8FC21AA4206D9C1F1010735
:1030200007EB870707441546BFB29A4206D21346FC
:10303000C1F1010202EB8202024496B2401C03E09D
:1030400060C00720D8100010C0B20528DED3491C8C
:10305000C9B20229D6D30020E91A1FFA81F88B22BF
:1030600000FB02F10CEB8101401CA1F80652A1F813
:103070000832A1F80A82A1F80C72C0B2A1F80E625F
:103080000228ECD30549C1F808A00448848003480D
:103090008188491C8180BDE8F09F00003CC007206A
:1030A0007CB5214D0446C1F10106286900EBC6003C
:1030B00001798DF8001041798DF8011081798DF832
:1030C0000210C1798DF80310017A8DF80410407A4E
:1030D0008DF805000621684601F048FDE880010AE8
:1030E0008DF80610C0B28DF807002A6902EBC602FF
:1030F000937A994216D1D17A884213D19DF8000073
:1031000020709DF8010060709DF80200A0709DF88D
:103110000300E0709DF8040020719DF805006071C7
:1031200001207CBD00207CBD3CC0072030B40F4A8C
:10313000017811704178517081789170C0780021C8
:10314000D070FF23002000EBC1041444401CC0B227
:1031500023710828F7D3491CC9B20229F2D3044AC3
:1031600014210248D26830BC10470000E40C001063
:103170003CC00720064902780A7042784A7082787B
:103180008A70C078034AC8700421D268004810478A
:10319000E40C00103CC007202DE9F05FF9484C21F9
:1031A000432301705421417083703621C17038214E
:1031B00001713121417181710D21C1710A210922F1
:1031C0000172002642F2107E4FF0200B43238354FD
:1031D000831856245C7083F802B0D21C00258B2320
:1031E00006FB03F4E84B92B20746884603EB840AD9
:1031F0000AEB45036D1CB3F842407346B4FBF3FC85
:103200000CF1300C07F802C0B4FBFEFC0EFB1C43B3
:103210004FF47A7CB3FBFCF9BB1809F1300983F851
:103220000190B4FBFCF90CFB19494FF0640CB9FB9D
:10323000FCF909F1300983F80290B4FBFCF90CFBAE
:10324000194CBCFBF8FC0CF1300C83F803C0B4FB48
:10325000F8FC08FB1C4430341C71D21D83F805B007
:10326000EDB283F806B092B20C2DC1D30D23BB543E
:10327000BB18921C761CF6B283F8018092B2022E23
:10328000A4D34D23835483184124121D5C701FFA6C
:1032900082F95824BC4A9C7083F803B0B2F862618A
:1032A0007346B6FBF3F4B6FBF3F2303400F8094092
:1032B0000EFB12624FF47A74B2FBF4F500EB0902D4
:1032C00030355570B6FBF4F504FB156C6425BCFB7A
:1032D000F5FC0CF1300C82F802C0B6FBF5FC05FBE6
:1032E0001C6CBCFBF1FC0CF1300C82F803C0B6FB8B
:1032F000F1FC01FB1C66303616710D26567191717A
:1033000009F1070292B24D26865486184FF0490CF7
:10331000121D86F801C01FFA82F94FF04E0C9A4A2E
:10332000DA4686F802C086F803A0B2F86461B6FBFC
:10333000F3FCB6FBF3F20CF1300C03FB126200F865
:1033400009C0B2FBF4FC00EB09020CF1300C82F86E
:1033500001C0B6FBF4FC04FB1C6CBCFBF5FC0CF1DF
:10336000300C82F802C0B6FBF5FC05FB1C6CBCFB04
:10337000F1FC0CF1300C82F803C0B6FBF1FC01FB50
:103380001C66303616710D265671917109F10702CF
:1033900092B25826865486184FF04E0C121D86F8AD
:1033A00001C01FFA82F94FF04D0C774A86F802C02F
:1033B00086F803A0B2F86861B6FBF3FCB6FBF3F243
:1033C0000CF1300C03FB126200F809C0B2FBF4FCF4
:1033D00000EB09020CF1300C82F801C0B6FBF4FCE2
:1033E00004FB1C6CBCFBF5FC0CF1300C82F802C039
:1033F000B6FBF5FC05FB1C6CBCFBF1FC0CF1300CC6
:1034000082F803C0B6FBF1FC01FB1C663036167176
:103410000D265671917109F1070292B24E2686541B
:10342000B4468618121D86F801C01FFA82F94FF0C3
:103430004D0C554A86F802C086F803A0B2F86A61BE
:10344000B6FBF3FCB6FBF3F20CF1300C03FB12629B
:1034500000F809C0B2FBF4FC00EB09020CF1300CDF
:1034600082F801C0B6FBF4FC04FB1C6CBCFBF5FC51
:103470000CF1300C82F802C0B6FBF5FC05FB1C6CAD
:10348000BCFBF1FC0CF1300C82F803C0B6FBF1FC84
:1034900001FB1C66303616710D265671917109F1CB
:1034A000070292B24426865486184FF04C0C86F8D8
:1034B00001C04FF0540C86F802C086F803A0121D1C
:1034C00096B2314ADFF8C0904FF00D0AB2F866218B
:1034D000B2FBF3FC0CF1300C00F806C0B2FBF3FCBD
:1034E0000EFB1C23B3FBF4F3B81930334370B2FB6B
:1034F000F4F304FB1323B3FBF5F330338370B2FB17
:10350000F5F305FB1323B3FBF1F33033C370B2FBC8
:10351000F1F301FB1322303202710D2242718171ED
:10352000F61DB0B200214FF0420C5A4607F800C019
:103530003B184C245C70C01C9A7080B230233B5402
:103540008B2301FB03F409EB840407EB0006E489F9
:10355000C4F30325092D01D9373500E030357570E6
:10356000C4F30315092D07EB000601D9373500E038
:103570003035B57004F00F04092C07EB000505D9B0
:10358000373404E014050010BC0000103034001D76
:10359000EC7080B23C1807F800A0801C491CC9B22E
:1035A00084F8018080B20229C0D3F34600244FF48E
:1035B0007A7EBC4647210CF800100CEB0001562225
:1035C0004A702022C01C8A7000238B2104FB01F268
:1035D00080B209EB820707EB43015B1CB1F86E2157
:1035E0005946B2FBF1F530350CF80050B2FBFBF553
:1035F0000BFB15217546B1FBF5F60CEB00013036DF
:103600004E70B2FBFEF60EFB16266425B6FBF5F6F1
:1036100030368E70B2FBF5F605FB1626B6FBF8F6D3
:103620003036CE70B2FBF8F608FB162230320A7143
:103630002022C01D4A71DBB28A7180B2052BCAD329
:103640000CF800A00CEB0001801C641CE4B2534693
:1036500081F8018080B2022CACD3DA4600214C46BE
:10366000AB4666469E4652233354331846255D705A
:103670009A70C01C83B28B2501FB05F004EB80001F
:103680005546B0F810024FF47A7CB0FBF5F73037AE
:10369000F754B0FBFAF70AFB17056746B5FBF7F9D5
:1036A000F51809F1300985F80190B0FBFCF90CFB25
:1036B0001907D946B7FBF9F73037AF70B0FBF9F708
:1036C0000BFB1707B7FBF8F73037EF70B0FBF8F7D5
:1036D00008FB1700303028715B1D98B2351806F8CA
:1036E00000E0801C491CC9B2734685F8018080B295
:1036F0000229B8D300214FF0430BE64692465322ED
:1037000032543218C01C82F801B082F802A082B292
:103710008B20484304EB800042F21075B0F814028D
:10372000491CB0FBF5F73037B754B0FBF5F705FB94
:1037300017077546B7FBF5FCB7180CF1300C87F886
:1037400001C0B0FBFEFC0EFB1C0C4D46BCFBF5FCA7
:103750000CF1300C87F802C0B0FBF5FC09FB1C0C27
:10376000BCFBF8FC0CF1300C87F803C0B0FBF8FC94
:1037700008FB1C0030303871521D90B2321833549F
:10378000801CC9B282F8018080B20229B7D35222CC
:1037900032543218452757704FF0560982F802907C
:1037A00082F803A08B22514304EB8101001D91F8A4
:1037B0002422AE49092780B291F824124FF0370E27
:1037C000B7EB121F02D20EEB111102E0302707EB0C
:1037D00011113154A54902F00F02092A91F824125F
:1037E00006EB000201F00F0101D9373100E0303162
:1037F0005170801C80B23118335481F80180801CD4
:1038000081B24FF04D0C701806F801C06E22427064
:103810006D228270964A80F803A05746D269B8EBB1
:10382000127F03D9302404EB127401E00EEB127402
:103830000471C2F303640A2C01D2303400E037343F
:103840004471C2F303540A2C01D2303400E03734FF
:103850008471C2F303440A2C01D2303400E03734BF
:10386000C471C2F303340A2C01D2303400E037347F
:103870000472C2F303240A2C01D2303400E037343E
:103880004472C2F303140A2C01D2303400E03734FE
:1038900002F00F0284720A2A01D2303200E037327D
:1038A000C2720C3188B231183354801C81F8018007
:1038B00080B231183354801C81F8018080B24C21D1
:1038C000315431189A461A4654234B7081F802B08D
:1038D0003624CC7038240C71401D80B23118375416
:1038E0004B7045238B704D24CC705024401D0C71BF
:1038F00080B231183254801CB946DFF870B181F8BB
:10390000018080B200223746C64644213954391816
:1039100045234B7056238B70F446B2FBFCF33033D7
:10392000CB70B2FBFCF30EFB132330330B7181F829
:103930000590801D00218B2602FB06F380B20BEB65
:10394000830606EB4103491CB3F8FC41C9B2B4FB42
:10395000F5F330333B54B4FBF5F305FB1343B3FBF2
:10396000FCF83B1808F1300883F80180B4FBFCF840
:103970000CFB18443034001D9C7083F8039080B217
:103980000529DED307F800A03918801C521CD2B2DA
:1039900081F801E080B2022AB7D34D223A54391897
:1039A00041234B7058238B7081F80390001DBBF8A6
:1039B000066281B2B6FBF5F030307854B6FBF5F014
:1039C00005FB106C7046BCFBF0F807EB010C08F12E
:1039D00030088CF80180B6FBF0F80EFB1866303624
:1039E0008CF80260C91C89B207EB010C07F801A032
:1039F000891C89B28CF801E07A547A184FF0490C8E
:103A000082F801C04FF04E0C4B4682F802C0D370D2
:103A1000BBF80822091DB2FBF5F389B230337B54A1
:103A2000B2FBF5F305FB1323B3FBF0F47B18303442
:103A30005C70B2FBF0F400FB14223032C91C9A70A7
:103A400089B256467E547A18891C507089B27A1809
:103A50007E54891C50708CB22146064801F07CF9D6
:103A60002146BDE8F05F034801F0F4B8BC00001047
:103A70003CC00720140500100020094BAA2203EBCC
:103A8000800103F820204A70401C8A70C0B2CA70BE
:103A90000228F4D3034A08210148D26810470000E5
:103AA000E40C00103CC00720064902780A704278F6
:103AB0004A7082788A70C078034AC8701421D2682C
:103AC00000481047E40C00103CC00720F0B500246B
:103AD000059E0D46102903D3A1F11004E5B201247F
:103AE000C70007EB8407124C3C4427686D004FF079
:103AF000030C0CFA05FC27EA0C0727602768AA408C
:103B000017432760226C22EA0C022264226CAB402D
:103B10001A43226401228A400549012E01EB8000EC
:103B2000816E03D0914381660020F0BD1143FAE716
:103B300000C002400022022800D1052209B942F04B
:103B40000A020248C26700207047000000C002401D
:103B500070B52F4E00250124F571757134707470A5
:103B6000F069C10200D57471C10300D574714105BB
:103B700000D57471810304D53570B16921F080716D
:103B8000B161010301D4410300D5F471C10601D52F
:103B90003570F471410600D5F471810608D5B1691C
:103BA000B56441F080717567B161B5727570F4717B
:103BB000010600D5F471C10501D4810502D5357027
:103BC0007570F471010701D53570F471400701D5A6
:103BD0007570F471307800B10120FDF75FFD7078E9
:103BE00000B10120FDF712FEB07800B10120FDF711
:103BF00099FFF07908B1002204E0707908B1B4713E
:103C000070BD012218210120FDF762FFB57170BD62
:103C10003CC307200C4900B511F8202F89B0009251
:103C20000A7901920A7A02920A7B03920A7C06922E
:103C30008A8A07920A7E0492898B0591202269461E
:103C4000FCF7DEFA09B000BD004002400B4900203D
:103C500008600B4951F8C42F42F400720A60094908
:103C600091F85C20D20605D591F85C2042F0100254
:103C700081F85C200874087308727047C4C4072078
:103C800000C00F4000400240F0B505AC94E8E010E1
:103C9000054C04F8200F2171227223732774A4F8B5
:103CA00014C02576A683F0BD004002400348017A87
:103CB00041F0010101720121017070470040024092
:103CC0000448017841F001010170034901200860B6
:103CD0007047000000400240C4C407202DE9F05F97
:103CE0008346DDE90AE456488A4654210D9D017059
:103CF000914649214FF47A774170B4FBF7F24D2198
:103D000081704521C1702021017130324271B4FBB4
:103D1000F7F207FB12424FF0640CB2FBFCF80646C8
:103D200008F13008721D86F80680B4FBFCF60CFB27
:103D300016480A26B8FBF6F808F1300882F8028027
:103D4000B4FBF6F806FB18443034D4701171BEFB96
:103D5000F6F2BEFBF6F4303206FB14E8827202463D
:103D600008F1300882F80B801173B3FBF6F23032A1
:103D70004273B3FBF6F206FB1238024608F1300834
:103D800082F80E80D173B5FBF7F230320274B5FBC6
:103D9000F7F207FB1252B2FBFCF70346303703F190
:103DA00010025F74B5FBFCF30CFB1353B3FBF6F38B
:103DB0000D2430339370B5FBF6F306FB1353303309
:103DC000D37011710C9AB9FBF6F3B2FBF6F23032F4
:103DD0004275024606FB13959175B9FBF6F2303237
:103DE000C275024630351576BAFBF6F35176BAFB4A
:103DF000F6F206FB13A53032827602463035D576D0
:103E00001177BBFBF6F2BBFBF6F33032427706FBD1
:103E100013B5024630359577D177014680F82040BA
:103E200081F8216080F82240242480F82360214614
:103E300000F092FF2146BDE8F05F014800F00ABFA4
:103E400070CF07201C4B10B5996C64204143186C4F
:103E5000B1FBF0F4B1FBF0F200FB1414D2B29A7291
:103E6000B4EB500F01D9521C9A72D2B2642A21D9F4
:103E7000B1FBF0F4B1FBF0F200FB1414D2B29A7271
:103E8000B4EB500F01D9521C9A72D2B2642A11D9E4
:103E9000B1FBF0F2B1FBF0F400FB1411D2B29A7254
:103EA000B1EB500F01D9521C9A72D0B2642801D9DB
:103EB0006420987210BD00003CC3072000220F212F
:103EC0000120FDF705BE000010B50A4CA06021805E
:103ED00000206080A08002461021FDF7F9FDA06857
:103EE000054A10F8011B9160A0602088401E2080C8
:103EF00010BD000030C00720000002400F4A10B57E
:103F00000120D061506800060FD591680D4C0C4B14
:103F100060881954401C6080208838B1A16811F86D
:103F2000013B9360401EA160208010BD0122102142
:103F30000020FDF7CDFD0020A08010BD0000024054
:103F400008C5072030C0072038B51C48D0F8A81194
:103F500041F40031C0F8A81150F8C41F41F4807139
:103F600001600024234603220F2120460094FFF71E
:103F7000ADFD00230322112118460094FFF7A6FD92
:103F800000230322122118460094FFF79FFD01220F
:103F900010210020FDF7B6FD012210210020FDF7C1
:103FA00097FD0748B82101603221C1604FF0E02140
:103FB0004FF40050C1F8000138BD000000C00F40B0
:103FC0000000024070B5174D0026174CA8602980EC
:103FD0006E80AE8002206060324606213046FDF7DA
:103FE00077FD124A14E0E1688907FCD5A96811F849
:103FF000013BA360401EA9602880E068C007FCD098
:10400000E0684007FCD5A16868881154401C6880AE
:1040100028880028E7D101220621FDF759FD6660B6
:1040200070BD0000A8C40720000003401411001058
:1040300038B51948D0F8A81141F40011C0F8A811FA
:1040400050F8C41F41F4806101600024234602221D
:10405000072120460094FFF739FD002302220821A2
:1040600018460094FFF732FD00230222092118466A
:104070000094FFF72BFD012206210020FDF742FDF1
:10408000012206210020FDF723FD044840F6C72148
:1040900001600521016138BD00C00F4000000340F0
:1040A00030B51E491E4C0120087020781D4A012899
:1040B00002D11078401C10701378002002210A2BC6
:1040C00006D9194B5D6825F001055D6021701070FF
:1040D000164C174A2378012B02D113785B1C1370FE
:1040E00013780A2B06D9134B5D6825F001055D6036
:1040F00021701070104C114A2378012B02D11378D3
:104100005B1C137013780A2B06D90D4B5D6825F0E4
:1041100001055D602170107030BD000000000010CE
:1041200003C0072000C007200000014004C0072092
:1041300001C007200080094005C0072002C00720F9
:1041400000C0094070B52F482021C0F8A011D0F858
:10415000A011890603D5D0F8A0114906FBD5032686
:10416000C0F804610024C0F8A841C0F8AC410125A2
:10417000C0F80C512449C0F88410AA22C0F88C2041
:104180005523C0F88C30C0F88050C0F88C20C0F89F
:104190008C30D0F888104901FBD5C0F88060C0F899
:1041A0008C20C0F88C30D0F88810C1F3016103294D
:1041B000F9D12321C0F8A410C0F8AC20C0F8AC306D
:1041C000C0F8A050C0F8AC20C0F8AC30D0F8A810AF
:1041D0004905FBD5C0F8A060C0F8AC20C0F8AC30F1
:1041E000D0F8A810C1F301210329F9D10749C0F87B
:1041F000C410C0F8C841016821F4704141F4804105
:10420000016070BD00C00F4063000500DE87280418
:10421000174A9068C0F34201164801291BD00229B1
:1042200018D11378816901F8013B0123C3708161C2
:1042300001894FF00003491C0181C188491E09040E
:10424000090CC180037005D1516821F00101516052
:104250000221C17070474189491E0904090C41813E
:10426000F8D0C16911F8013B1370C16170470000BB
:104270000000014000C00720174A9068C0F34201C7
:10428000164801291BD0022918D11378016A01F8B8
:10429000013B012303710162C1894FF00003491CF6
:1042A000C1818189491E0904090C8181437005D1AE
:1042B000516821F001015160022101717047018AAA
:1042C000491E0904090C0182F8D0416A11F8013B2A
:1042D00013704162704700000080094000C0072051
:1042E000174A9068C0F34201164801291BD00229E1
:1042F00018D11378816A01F8013B0123437181626F
:10430000818A4FF00003491C8182418A491E0904B9
:10431000090C4182837005D1516821F0010151607F
:10432000022141717047C18A491E0904090CC182EA
:10433000F8D0C16A11F8013B1370C16270470000E8
:1043400000C0094000C00720002809DB00F01F0260
:10435000012191404009800000F1E020C0F80011E7
:104360007047002809DB00F01F020121914040093D
:10437000800000F1E020C0F80011704738B52548F2
:10438000D0F8A81141F08071C0F8A81150F8C41FEE
:1043900041F480510160002402231A461946204648
:1043A0000094FFF793FB02231A4603210020009498
:1043B000FFF78CFB02230122172100200094FFF756
:1043C00085FB02230122182100200094FFF77EFBC9
:1043D00002230122192100200094FFF777FB02231A
:1043E00001221A2100200094FFF770FB0223032210
:1043F0001E2101200094FFF769FB022303221F21E5
:1044000001200094FFF762FB044803490160C46087
:1044100038BD000000C00F40FF09210000400340EC
:1044200010B5002219210320FDF752FB0148016855
:10443000016010BD0040034038B51B48D0F8A811FA
:1044400041F40041C0F8A81150F8C41F41F08001A8
:1044500001600124022322461C2100200094FFF762
:1044600035FB022301221B2100200094FFF72EFBC5
:1044700001210020FFF75EFB0C48FA210161416138
:10448000402101604FF0E0210015C1F80001012238
:104490001A210320FDF736FBBDE8384000221A211F
:1044A0000320FDF715BB000000C00F4000C0014015
:1044B00030B50C4A0024012390609170D4701370C1
:1044C00002215170C178CD0706D0007801F0FE01BD
:1044D000884201D1137100E0147103492020086063
:1044E00030BD000030C3072000C0014070B50C484B
:1044F0000C4D002144884FF6FF7303EAC1100822D7
:10450000460403EA400000D56040521E1204120C1B
:10451000F6D125F81100491C89B2FF29EDD970BDEB
:104520003CC00720D80E001088B00120FDF7DCFA4F
:10453000012216211046FDF7E5FA01221721104647
:10454000FDF7E0FA002205211046FDF7DBFA012213
:1045500016211046FDF7BCFA012217211046FDF77F
:10456000B7FAFDF769FB0520FDF7AAFC0022182128
:104570000120FDF7ADFA012211211046FDF7C2FA24
:10458000002211210120FDF7A3FA0122102110467B
:10459000FDF7B8FA002210210120FDF799FA012257
:1045A0000F211046FDF7AEFA00220F210120FDF782
:1045B0008FFA01220E211046FDF7A4FA00220E21E7
:1045C0000120FDF785FA01220A211046FDF79AFA2B
:1045D00000220A210120FDF77BFA0122132100208D
:1045E000FDF790FA012213210020FDF771FA012254
:1045F0000F211046FDF76CFA002217210120FDF76C
:1046000067FA002216210120FDF762FA0521002039
:10461000FDF752FA0028F9D000F0DEFA00F030FB86
:1046200000F064FBFFF790FCFFF702FDFFF7A6FE2A
:10463000FFF702FF00F0B4FA4FF0E020F9494161C2
:10464000F94AF82182F8141D0024846107210161D0
:10465000FFF74CFFFDF7CCFCFFF7E2FEFFF7F6FAA1
:10466000FFF724FB0020FCF71DFF0120FCF71AFFD9
:104670000020FCF77DFF0120FCF77AFF0020FCF70B
:1046800083FF0120FCF780FFDFF8A093DFF8A0A3F1
:104690004FF0A108012640F2E47BE64D287801287E
:1046A000FBD12C70A868E449401CA8600860E3496D
:1046B0004FF47A770860B0FBF7F107FB110010B9EF
:1046C0002869401C2861FDF73DFBDD48017831B1C8
:1046D00004702869032802D9FF20687002E0687816
:1046E000FF2802D1A888401CA880FBF741FFFDF7F6
:1046F0000FFD687810286FD021DC78B30128CCD169
:10470000D9F80000C10603D5CE490B685B1C0B60CD
:10471000810603D5CC490B685B1C0B60410603D5B1
:10472000CA490B685B1C0B60000603D5C8480168CA
:10473000491C0160C748006800287DD091E020280E
:10474000D9D0FF28A9D1A888C82876D076DC01283E
:1047500075D0022874D064289FD1D0E1FFE7BE480D
:104760000078802801D110206870A86840F2A46207
:10477000A0F2A46190423BD014DCB0F52F7FECD0C6
:10478000B0F5966F29D0A0F5C060723885D11E2291
:10479000B249A748FBF77CFF0028B0D140F28A203D
:1047A000A8607AE7642934D0A1F54061E439F8D1F2
:1047B000FDF75CF9AA48AB4900780870AA49096876
:1047C00041436420B1FBF0F0A84908606E700120FD
:1047D000FCF764FF01208AE1BCE1A048A021017040
:1047E0004670867080F803801E21FFF761FE54E753
:1047F000FDF726F89E480088A0F5B441A53902D0FF
:104800002020687049E78B480B21143000F0A4FA8F
:1048100043E79848016898480160984801689848BB
:10482000016098489849006808609848984900785D
:10483000087098490A6804E011E06CE14EE152E129
:1048400058E1894900280A609349944A09881180EF
:10485000A7D19348016841F0807101601DE71020E5
:10486000687090480068342807D9FBF721FFFBF7F0
:1048700031FFFFF76DF9FDF783FAA868B0FBF7F198
:1048800007FB110000288CD1E868401CE860D9F8CB
:104890000000C10503D584490A68521C0A608005DE
:1048A00003D582480168491C0160814F39680807B7
:1048B00009D5804A1068401C10601E2803D921F0D9
:1048C0000800146038603968480709D57A4A1068CA
:1048D000401C10601E2803D921F0040014603860C9
:1048E0003968880609D5754A1068401C10601E2872
:1048F00003D921F02000146038603968C80609D552
:104900006F4A1068401C10601E2803D921F0100067
:10491000146038603968480609D56A4A1068401C36
:1049200010601E2803D921F04000146038603968F7
:10493000080609D5644A1068401C10601E2803D977
:1049400021F08000146038606846FFF763F9202288
:1049500069465E48FBF754FC5C4842695A4502D8F8
:10496000C069B42803D9386840F480103860E8681A
:104970000A280BD97821B0FBF1F201FB120028B90B
:10498000FDF734F81E215248FFF792FD5148007898
:1049900001280FD1287BC00707D100221821012050
:1049A000FDF796F8287BC00704D001221821104695
:1049B000FDF78EF8E86803287FF6F3AE6888401CA0
:1049C00080B268800B28BFF4ECAEDFE800F0060789
:1049D0000B1114060617060685005EE6FEF7DCFBE3
:1049E000002200E0012217210120FDF771F854E6B2
:1049F000FBF730FF51E6FBF7D3FC4EE66846FFF7C6
:104A000009F9202269463148FBF7FAFB2F48203884
:104A100000F1300120302EC98DE82E000FC8FFF7BD
:104A20005DF93AE69F8601000FE000E08CC40720A4
:104A30005AC407200000001050C00720700000106A
:104A4000B50000106400001090C40720680000103A
:104A500094C4072088CB07203CC0072080000010AA
:104A60003FC3072040C307207CC3072080C3072023
:104A70004EC30720A8C30720B4C30720ACC3072038
:104A8000BCC30720A0C3072084C3072045C3072059
:104A900046C30720A4C307204CC3072050C30720E8
:104AA00054C3072058C007206C00001098C407208A
:104AB00058C30720740000109CC40720A0C407201E
:104AC000780000107C000010A4C40720E8C4072070
:104AD00028C4072042C307206C80DEE5D22820D0FE
:104AE000FA2884D133E00020FCF7D8FD0020FCF741
:104AF0008DFED2E5FCF77AFF1E21194875E6A0214C
:104B00008AF800108AF801608AF802608AF8038047
:104B10001E21144869E6FCF7E5FE0028DDD1AC80D3
:104B2000BBE51149032520460C604C60C1E90246F3
:104B3000C1E90654C1E9046BCDE9006BCDE902542B
:104B4000334602460146FFF79FF8FFF7AFF8FFF73D
:104B5000B5F9A2E5002216210120FCF7B9FFF6E71E
:104B600028C407205AC40720C8C4072030B5102322
:104B700000220A4D0AE0845C521C84EAD314E4B299
:104B800092B235F8144084EA03239BB28A42F2D3EE
:104B90004FF6FF7000EA430030BD0000D80E001051
:104BA0000B48D0F8AC1141F40041C0F8AC1150F8FA
:104BB000C41F41F400010160064800210167312152
:104BC000C16032218161012141610420FFF7C9BB2D
:104BD00000C00F400040094038B51C48D0F8A8116B
:104BE00041F44071C0F8A81150F8C41F41F0100101
:104BF0000160002402231A46214618460094FEF75D
:104C000065FF02231A46012118460094FEF75EFF55
:104C1000022101220846FCF775FF01220D21022026
:104C2000FCF770FF0A48012101720321017302227F
:104C3000426083220273042202700471D9228262CC
:104C40000173BDE838400620FFF77EBB00C00F406F
:104C50000000014070B50D460446022101220846BD
:104C6000FCF736FF044A0549D461558114F8010B5D
:104C70000870D46170BD000000C007200000014032
:104C800038B51848D0F8AC1141F44031C0F8AC1137
:104C900050F8C41F41F080710160002402230122FA
:104CA0000A2120460094FEF711FF022301220B2166
:104CB00000200094FEF70AFF0B4801210172032136
:104CC0000173022242608322027304220270047183
:104CD000D92280F828200173BDE838400720FFF76B
:104CE00033BB000000C00F400080094038B51848B1
:104CF000D0F8AC1141F44021C0F8AC1150F8C41FF9
:104D000041F0007101600024022303221C210420D1
:104D10000094FEF7DBFE022303221D2104200094F1
:104D2000FEF7D4FE0B480121017203210173022218
:104D3000426083220273042202700471D92280F837
:104D400028200173BDE838400820FFF7FDBA0000B5
:104D500000C00F4000C00940044A054BD062D18218
:104D600010F8011B1970D0627047000000C00720C6
:104D700000C009400000000000000000000000002A
:104D80000000000000C001000000000000C0120090
:104D90000000000000C023000000000000C025004B
:104DA0000000000000C0360000000000000000000D
:104DB00000C0480000C04900F84D0000000000108D
:104DC000BC00000064010000B44E000000C00720D9
:104DD000C804000008010000B44E0000BC00001030
:104DE0001C1100008001000018510000C8C40720F9
:104DF000100D000080010000000000000000000015
:104E00000000000000000000000000004545505276
:104E10004F4D204F4B0A0D00000000000000000025
:104E20000000000000000000000000000000000082
:104E3000000000000000000000000000060000006C
:104E40000800000000000000050000000000100045
:104E500001001000000020001000200000000000F1
:104E60000000000000000000000000000000000042
:104E70000000000000000000A00001A100000000F0
:104E80000000000000000000000000000000000022
:104E90000000000000000000000000000000000012
:104EA0000000000000000000000000000000000002
:104EB00000000000013E83994523C93E057408C5E2
:104EC000072014E9E9021420BF022410980213718C
:104ED0000214F0490214213A021428170214B8FFF0
:104EE000011478E00114F0CC011438B70114E0A5E6
:104EF00001244096011377011460670114F55401F1
:104F000014204801145040011BB0301C1319011427
:104F1000A40A0114F8010123A0F523F2E923EEDE2F
:104F20002302D22394CA232AC1234CB823DCAF2303
:104F30008CA62350A0232099234A9223CE8B23F6BC
:104F40008423D07F23447A1BF47404226F23D46A11
:104F5000239E66234862232E5E23465A235C5623F3
:104F6000F85223924F23544C233E49233B461B8047
:104F7000434822401B3A3E08223B237239233C37E8
:104F8000231635230E331B1A312C222F23782D2381
:104F9000C02B1B1C2A8822281B1027642225234093
:104FA0002423EC221BAC21E31A2098221F23281E65
:104FB0001B241D44221C231D1B1B2C1A8422192375
:104FC0006A18238E1723C1161BFE153C1904238C67
:104FD0001423D8131A2F041B8E12A422111A620450
:104FE0001BCC107819041BBE0F90190423C40E1A91
:104FF0004C0423DD0D1A660423F80C1A94041A30AD
:10500000041BCC0BB819041A180423C80A1A6E041E
:105010001A1D0423CE091A88041A420423FC081A14
:10502000B4041A7A041A340423F8071ABC041A8543
:10503000041A4E041A1C0423EA061AB8041A84043B
:105040001A54041A2C0423FA051AD2041AAB041AAF
:1050500082041A5A041A3C041A14041BF304641937
:10506000041AB0041A92041A74041A55041A380463
:105070001A1A0423FC031AE80414E9E9021438B7E5
:105080000114A40A01238CA623D46A1B3B46E02208
:105090002F2377204BC116EC29C829A42980395C1D
:1050A000193C11D202033B6464CB204E040138103A
:1050B000157869487130755C76EC771879E079A8D5
:1050C0007A707B387C30147D647D967DC87D2C7E23
:1050D000C27E587F2080E880DC827812030A111B90
:1050E000232B32373C41464B50555A5F6409181800
:1050F000696E73787D82878C91969B3C3F434850C4
:1051000054575A5C5F6264011B63620112A0022F54
:08511000011932026AA100003E
:04000005000000CD2A
:00000001FF
